:020000040800F2
:10000000386400201D28000825280008272800083B
:10001000292800082B2800082D28000800000000CF
:100020000000000000000000000000002F28000871
:10003000312800080000000033280008670B000882
:100040003728000837280008372800083728000814
:100050003728000837280008372800083728000804
:1000600037280008372800083728000837280008F4
:1000700037280008372800083728000837280008E4
:1000800037280008372800083728000837280008D4
:1000900037280008372800083728000837280008C4
:1000A00037280008890B000837280008372800087F
:1000B000C50B000837280008372800083728000833
:1000C0003728000837280008372800083728000894
:1000D0003728000837280008890900086709000840
:1000E0003728000837280008372800083728000874
:1000F0003728000837280008372800083728000864
:100100003728000837280008372800083728000853
:100110003728000837280008372800083728000843
:100120003728000837280008372800083728000833
:100130003728000837280008372800083728000823
:100140003728000837280008372800083728000813
:100150003728000837280008372800083728000803
:1001600037280008372800083728000837280008F3
:1001700037280008372800083728000837280008E3
:100180003728000837280008DFF810D006F038FEBE
:1001900006F084FB00480047E701000838640020AF
:1001A00070B504460D4600BF4021064802F0CEF966
:1001B0000028F9D0E1B2034802F018F9204670BDDA
:1001C0007047000000440040002106E047F2305133
:1001D00000BF0A00A1F10101FBD10200A0F101035F
:1001E00098B2F3D1704700F021FD1E20FFF7ECFF1D
:1001F00020A007F0F7F84FF47A70FFF7E5FF002230
:1002000011462148006802F08AFC1420FFF7DCFF49
:100210001EA007F0E7F80BE01F480068012804D192
:1002200000201D49086000F01FF93220FFF7CCFFC5
:10023000F2E738B5042007F0C1F804461749016019
:1002400000BF1749016017480460002003460246BA
:10025000009014480168144802F027FB0A4801681E
:10026000124804F01BFB08480168114805F026FEFF
:1002700038BD0000496E697469616C697A696E679E
:100280002E2E2E0D0A00000004000020446F6E6523
:100290007E210D0A00000000980000203C8100082B
:1002A0001081000800000020B40800200800002091
:1002B000381B002000B5A5B044220F4914A806F051
:1002C000EFF920220D490CA806F0EAF90C4800903D
:1002D000022001900B4802900CA903A806F012FA24
:1002E00014A80B9000231A4669460748006802F0DC
:1002F00068FD25B000BD000060810008587D000841
:10030000619F0F00000A00030400002010B50022C6
:100310000121114805F0DBFD40221049104806F08C
:10032000BFF910BD10B5002201210B4805F0CFFD2B
:100330004FF480600A49086048608860C8600861BE
:1003400048618861C861086248628862C86208635F
:1003500048638863C86310BD381B0020500000202C
:100360001000002000B5C5B09FED2A0B51EC100B1A
:100370002A4A106151612A480168684603F0A9F9C8
:100380007C22694626A806F08BF91A220DF1D601C7
:100390001FA806F085F92148DDE91F1201604260BF
:1003A0001F480168684603F094F97C22694626A834
:1003B00006F076F91A220DF1D6011FA806F070F9A1
:1003C0001648DDE921128160C260182201463FA86B
:1003D00006F066F99DED432B9DED411B9DED3F0B16
:1003E000104806F07DF8B2EE0E0A0E4806F098F8B6
:1003F0009FED0D0B0B4806F08AF80021094805F027
:10040000A1FE45B000BD10B505480168054805F0DE
:1004100023FE10BD0000000000004940B41B002076
:10042000040000207C1B00200000000000003E4073
:1004300000F0800262B100F07F0241EA02225242E3
:10044000642392FBF3F200EE102AB8EEC00A704764
:1004500000F07F0241EA0222642392FBF3F200EEF5
:10046000102AB8EEC00AF2E770B52DED028B002518
:10047000C5480078FA2802D0BDEC028B70BDC24896
:100480004078FB287DD1C048807828B900221146E9
:10049000BE48006802F043FBBB488078012801D1C8
:1004A000FFF708FFB8488078022814D1B648C07812
:1004B00030B900231A461946B448006802F0E4FE39
:1004C000B148C078012806D100231A460121AF485F
:1004D000006802F0D9FEAC488078032812D1AA48FF
:1004E000C07828B900231A461946A94804F084FAAE
:1004F000A548C078012805D100231A460121A44847
:1005000004F07AFAA048807804287DD19E48C0780B
:10051000012878D19C4800799E4908709A4A9179BF
:100520005079FFF785FF10EE100A9A49C1F80100D3
:10053000954A117AD079FFF77BFF10EE100A9549A2
:10054000C1F80500904A917A507AFFF771FF10EEDA
:10055000100A9049C1F809008B4A117BD07AFFF745
:1005600067FF10EE100A8B49C1F80D00884804F0AF
:1005700063FA0121880701F003F9834A91795079E0
:1005800000E0F9E0FFF754FF10EE104A204606F0B5
:1005900095F941EC180B53EC182B7FA006F022FFC5
:1005A000794A117AD079FFF743FF10EE104A2046BE
:1005B00006F084F941EC180B53EC182B78A006F0E8
:1005C00011FF714A917A507AFFF732FF10EE104A0C
:1005D000204606F073F941EC180B53EC182B72A06F
:1005E00006F000FF684A117BD07AFFF721FF10EE7A
:1005F000104A204606F062F941EC180B53EC182B18
:100600006BA006F0EFFE00E06CE05F48C078E8B950
:10061000912060490870B2EE040A10EE100AC1F889
:100620000100B2EE040A10EE100AC1F80500B3EEA4
:10063000040A10EE100AC1F809009FED600A10EEDE
:10064000100AC1F80D00524804F0F6F94E48C0787F
:10065000022847D14C4A91795079FFF7E9FE10EE14
:10066000104A204606F02AF941EC180B53EC182BDF
:1006700053A006F0B7FE444A117AD079FFF7D8FEAE
:1006800010EE104A204606F019F941EC180B53EC15
:10069000182B43A006F0A6FE3B4A917A507AFFF74A
:1006A000C7FE10EE104A204606F008F941EC180B80
:1006B00053EC182B3CA006F095FE334A117BD07A00
:1006C000FFF7B6FE10EE104A204606F0F7F841ECB0
:1006D000180B53EC182B3CA006F084FE0121880770
:1006E00001F04EF82848807805281DD12648C078AA
:1006F000012805D100231A460121254804F015F9E7
:100700002148C078022805D100231A460421204838
:1007100004F00BF91C48C078032805D100231A46C1
:1007200006211B4804F001F91748807806281CD1DF
:100730001548C07828B9FFF7F5FD0021254801F0DC
:100740001FF81148C078022805D1FFF7DFFD01210D
:10075000204801F015F80C48C078012805D1FFF7B2
:10076000E1FD01211B4801F00BF8074880780728BC
:1007700007D1FFF7F7FD04E003484078FC2800D0DC
:100780007AE600BF78E60000FF1B0020040000208E
:1007900008000020241B002078203D25660A000068
:1007A00079203D25660A00007A203D25660A000072
:1007B000796177203D25660A0A0000000000C842E2
:1007C0000A78203D25660A00796177203D25660A72
:1007D00000000000000001401CB50121084600F0A7
:1007E0005AFD0C20009002208DF804008DF80500C1
:1007F00000208DF8060001208DF80700694680482A
:1008000000F0FCFA072202217D4800F082FB07225B
:1008100003217B4800F07DFB1CBD1CB5012102209B
:1008200000F039FD4FF44060009002208DF8040084
:100830008DF8050000208DF8060001208DF80700D6
:100840006946704800F0DAFA07220A216D4800F084
:1008500060FB07220B216B4800F05BFB1CBD1FB542
:10086000FFF7BAFF0121480400F048FD4FF4E130E2
:1008700000900020ADF80400ADF80600ADF80800C7
:10088000ADF80C000C20ADF80A0069465E4801F096
:10089000FAFC012240F225515B4801F032FE0121B1
:1008A000594801F078FD00BF8021574801F04EFE05
:1008B0000128F9D11FBD1FB5FFF7AFFF0121880443
:1008C00000F01CFD4FF4612000900020ADF8040002
:1008D000ADF80600ADF80800ADF80C000C20ADF83E
:1008E0000A006946494801F0CEFC012240F2255138
:1008F000464801F006FE0121444801F04CFD00BFCE
:100900008021424801F022FE0128F9D11FBD1CB50B
:100910004FF4A06000F094F904208DF80500032046
:100920008DF8060027208DF8040001208DF80700BF
:1009300001A800F08AF903208DF8010002208DF84B
:10094000020026208DF8000001208DF80300684683
:1009500000F07BF91CBD10B5FFF781FFFFF7ABFF7F
:10096000FFF7D5FF10BD10B52021284801F0EEFD9E
:10097000012808D1254801F03DFDC4B22146244894
:10098000006803F069FD10BD10B520211E4801F07C
:10099000DDFD012832D11C4801F02CFD1D490870F5
:1009A0001D48006848B908460078FA2826D11B4936
:1009B000087001201849086020E016480078FE28D9
:1009C00011D1144800781549134A12688854124806
:1009D0000078401C1249087000200F49086001206F
:1009E000104908600AE00B4800780C490A4A12686E
:1009F000885409480068401C0749086010BD000081
:100A00000000024000040240004400400048004052
:100A1000040000209000002094000020FF1B002014
:100A200091000020980000201FB50121084600F029
:100A300076FC0121084600F072FC0020ADF80C00A5
:100A4000ADF80600C720029044F29F10ADF80400F4
:100A500000208DF80E0001A9694800F008FE192059
:100A60008DF8000003208DF801008DF802000120B0
:100A70008DF80300684600F0E8F80121604801F0B5
:100A8000ABFA012211465E4801F092FA00215C485F
:100A900000F076FE1FBD1FB50121084600F02EFCB8
:100AA0000121084600F02AFC0020ADF80C00ADF84A
:100AB0000600C720029044F29F10ADF80400002009
:100AC0008DF80E0001A94FF0804000F0D0FD1C20F1
:100AD0008DF8000002208DF8010003208DF802003F
:100AE00001208DF80300684600F0AFF80121880767
:100AF00001F072FA01221146900701F059FA002123
:100B00004FF0804000F03CFE1FBD30B53D4800680E
:100B10004FF47A72B0FBF2F1B1F1807F01D3012082
:100B20001DE021F07F40401E4FF0E0225061501741
:100B30000022002807DA13071D0E334B00F00F04C4
:100B4000241F1D5503E013071C0E304B1C5400BF1F
:100B500000204FF0E022906107201061002008B1D2
:100B600000BFFEE730BD2A4800222A4B0168591A0F
:100B700072EB020002DA0020254908602448006870
:100B8000401C23490860704700B59DB001211C48F6
:100B900001F025FA01280FD134221F49684605F0DB
:100BA0007FFD40221C490C390DA805F079FD1B483A
:100BB0000DA90EC905F0C3F90121114801F00CFA85
:100BC0001DB000BD10B50121880701F008FA012809
:100BD00011D113488078042808D11148C078012821
:100BE00004D11049104803F027FF04E000214FF022
:100BF000804000F0C5FD0121880701F0EDF910BD2E
:100C000000000140B000002018ED00E000E400E02A
:100C10009C000020009C57FC1C000020381B00207A
:100C2000FF1B0020241B00200800002010B5FFF748
:100C300092FEFFF76AFFFFF7F7FEFFF72CFF10BDEC
:100C400032490143324A1160704770B500210023D8
:100C50000F22C4781CB32E4C246804F4E064C4F55D
:100C6000E064C4F30721C1F10404E3B20A4144780B
:100C70009C40E1B28478144021430C07210E254C9E
:100C800005786155047804F01F050124AC4005780F
:100C90006D11AD0005F1E025C5F8004109E00478CB
:100CA00004F01F050124AC401B4D0678761145F871
:100CB000264070BD194A0A400243154B1B1F1A609B
:100CC000704739B1124A121D12680243104B1B1DA6
:100CD0001A6006E00E4A121D126882430C4B1B1D5F
:100CE0001A607047042808D14FF0E021096941F0EB
:100CF00004014FF0E022116107E04FF0E0210969A3
:100D000021F004014FF0E022116170470000FA0564
:100D10000CED00E000E400E080E100E080FFFF1F58
:100D200010B504468C48844208D10121084600F0E1
:100D300007FB0021012000F003FB5EE087488442AE
:100D400008D10121022000F0FBFA0021022000F06E
:100D5000F7FA52E08248844208D10121042000F0D1
:100D6000EFFA0021042000F0EBFA46E07D488442CF
:100D700008D10121082000F0E3FA0021082000F04A
:100D8000DFFA3AE07848844208D10121102000F0CF
:100D9000D7FA0021102000F0D3FA2EE073488442E5
:100DA00008D10121202000F0CBFA0021202000F002
:100DB000C7FA22E06E48844208D10121402000F0A9
:100DC000BFFA0021402000F0BBFA16E069488442D7
:100DD00008D10121802000F0B3FA0021802000F02A
:100DE000AFFA0AE06448844207D10121801500F07F
:100DF000A7FA0021A01500F0A3FA10BDF0B50A462D
:100E000000210023002400BF3DE0012505FA01F385
:100E1000156805EA03049C4234D105684F00032697
:100E2000BE40B543056015794E00B54006683543B0
:100E300005601579012D02D01579022D16D185682E
:100E40004F000326BE40B543856055794E00B5403E
:100E5000866835438560456801268E40B543456008
:100E6000456896798E40B6B235434560C5684F00F7
:100E70000326BE40B543C560D5794E00B540C6686F
:100E80003543C560491C1029BFD3F0BD4FF6FF7133
:100E900001600021017141718171C171704708B514
:100EA0004FF480320092009A0A430092009AC26185
:100EB000C161009AC261C2690092C269009208BD14
:100EC0000246002013690B400BB1012000E0002016
:100ED00070470146086980B2704702460020536996
:100EE0000B400BB1012000E000207047014648692B
:100EF00080B2704701837047418370470AB1018314
:100F000000E0418370474161704742694A40426155
:100F10007047F0B5002300244D07ED0E02FA05F3EB
:100F2000CE1000F1200555F826504E07F70E0F267B
:100F3000BE40B543CF1000F1200646F82750CE1032
:100F400000F1200555F8265045EA0304CE1000F1C3
:100F5000200545F82640F0BD000002400004024094
:100F600000080240000C0240001002400014024041
:100F700000180240001C024000200240F9480068AE
:100F800040F00100F74908600020F6490831086088
:100F9000F4480068F4490840F2490860F348091D24
:100FA0000860F348EF4984310860EE48006820F497
:100FB0008020EC4908600020EA490C310860704745
:100FC0000021E84A921C117011460870704710B554
:100FD00001460022002300204A11012A02D1E14CDF
:100FE000236808E0022A03D1DE4C7034236802E053
:100FF000DC4C7434236801F01F02012494401C402F
:101000000CB1012000E0002010BD38B50020009098
:101010000024002500BF3120FFF7D9FF05460098C6
:10102000401C00900098B0F5A06F01D0002DF2D0C8
:101030003120FFF7CCFF08B1012400E00024204656
:1010400038BD01460020C74A106820F0F80040EA89
:10105000C10010607047C749086070470021C14A4D
:10106000703211701170012802D004280AD104E0F6
:101070000121BC4A7032117005E00521B94A703275
:10108000117000E000BF00BF7047BB4908607047A7
:1010900070B5049C41EA82150126C6EB530645EA69
:1010A0000645054345EA0465AE4E361D356070BD04
:1010B000B04908667047820142EA0172A94B843345
:1010C0001A607047AB4988667047AA49C864704780
:1010D00002460020A34B0833186820F0EC6042EA77
:1010E000010318439F4B08331860704702460020E5
:1010F0009C4B0833186820F0784042EA01031843FB
:10110000984B08331860704701460020954A083212
:10111000106820F0030008431060704791480830C1
:10112000006800F00C007047014600208D4A08322C
:10113000106820F0F000084310607047014600205E
:10114000884A0832106820F4E05008431060704765
:1011500001460020834A0832106820F4604040EACB
:10116000C10010607047F0B5002100220024022564
:10117000002602237B4F08373F6807F00C0121B19E
:10118000042905D0082937D105E07C4F076036E0F7
:101190007B4F076033E0734F3F1D3F68C7F38056B6
:1011A000704F3F1D3F6807F03F036EB1744FB7FBB0
:1011B000F3F7DFF8B0C10CF1040CDCF800C0CCF39D
:1011C000881C07FB0CF40CE06C4FB7FBF3F7DFF85F
:1011D00094C10CF1040CDCF800C0CCF3881C07FBB4
:1011E0000CF4604F3F1D3F68C7F301477F1C7D0033
:1011F000B4FBF5F7076002E0604F076000BF00BF77
:10120000584F08373F6807F0F00109095D4F7A5CD5
:101210000768D7404760534F08373F6807F4E051ED
:10122000890A584F7A5C4768D74087604D4F083726
:101230003F6807F46041490B524F7A5C4768D740DA
:10124000C760F0BD002100F44072B2F5407F0AD1C2
:10125000444A0832116821F4F8114B4A0240114304
:10126000404A083211603F4A70321268C0F30B03E3
:101270001A433C4B70331A6070473F494439086049
:1012800070473D49403908607047404908607047E1
:101290003F490860704739B1324A30321268024320
:1012A000304B30331A6006E02E4A303212688243E7
:1012B0002C4B30331A60704739B12A4A34321268E5
:1012C0000243284B34331A6006E0264A343212684F
:1012D0008243244B34331A60704739B1214A383283
:1012E000126802431F4B38331A6006E01D4A383239
:1012F000126882431B4B38331A60704739B1194A60
:10130000403212680243174B40331A6006E0154A18
:10131000403212688243134B40331A60704739B130
:10132000104A4432126802430E4B44331A6006E0FE
:101330000C4A4432126882430A4B44331A607047A5
:1013400039B1084A103212680243064B10331A6052
:1013500006E0044A103212688243024B10331A60CE
:101360007047000000380240FFFFF6FA10300024FA
:101370000030002000004742800E47420024F40065
:1013800000127A00A0000020FFFCFF0F5C01474222
:10139000E011474229B15E4A126802435C4B1A6071
:1013A00004E05B4A12688243594B1A60704739B1B6
:1013B000574A121D12680243554B1B1D1A6006E066
:1013C000534A121D12688243514B1B1D1A6070470D
:1013D00039B14F4A0C32126802434D4B0C331A603C
:1013E00006E04B4A0C3212688243494B0C331A60B8
:1013F000704739B1464A103212680243444B1033E9
:101400001A6006E0424A103212688243404B1033A1
:101410001A60704739B13E4A3C32126802433C4B75
:101420003C331A6006E03A4A3C3212688243384B39
:101430003C331A60704739B1354A40321268024372
:10144000334B40331A6006E0314A4032126882431F
:101450002F4B40331A60704739B12D4A443212681D
:1014600002432B4B44331A6006E0294A4432126887
:101470008243274B44331A60704739B1244A4C32B7
:1014800012680243224B4C331A6006E0204A4C3269
:10149000126882431E4B4C331A60704739B11C4AA4
:1014A0005032126802431A4B50331A6006E0184A51
:1014B000503212688243164B50331A60704739B16C
:1014C000134AD21F12780243114BDB1F1A7006E039
:1014D0000F4AD21F127882430D4BDB1F1A707047E0
:1014E0000B486030006840F0807009496031086046
:1014F000704701460020064A083A12680A400AB1BD
:10150000012000E0002070470149891F08707047E2
:101510001438024010B50446FE48844208D1012127
:101520000846FFF766FF00210120FFF762FF9DE0FC
:10153000B4F1804F08D101210846FFF749FF00218F
:101540000120FFF745FF91E0F348844208D10121D3
:101550000220FFF73DFF00210220FFF739FF85E061
:10156000EE48844208D101210420FFF731FF002119
:101570000420FFF72DFF79E0E948844208D10121DA
:101580000820FFF725FF00210820FFF721FF6DE06D
:10159000E448844208D101211020FFF719FF0021FF
:1015A0001020FFF715FF61E0DF48844208D10121D8
:1015B0002020FFF70DFF00212020FFF709FF55E055
:1015C000DA48844208D101210220FFF712FF0021EE
:1015D0000220FFF70EFF49E0D548844209D10121DE
:1015E0000804FFF706FF00214FF48030FFF701FFEA
:1015F0003CE0D048844209D101214804FFF7F9FEBC
:1016000000214FF40030FFF7F4FE2FE0CA48844277
:1016100009D101218804FFF7ECFE00214FF480205E
:10162000FFF7E7FE22E0C548844208D101214020AF
:10163000FFF7CEFE00214020FFF7CAFE16E0C048AB
:10164000844208D101218020FFF7C2FE00218020C2
:10165000FFF7BEFE0AE0BB48844207D10121801596
:10166000FFF7B6FE0021A015FFF7B2FE10BD002265
:101670000288A84B98420ED0AC4B98420BD0B0F1E8
:10168000804F08D0A44B984205D0A44B984202D07A
:10169000A34B984204D14FF68F731A404B881A43DC
:1016A000A04B984207D0A04B984204D04FF6FF437E
:1016B0001A400B891A4302804B68C3620B8803856A
:1016C000944B984202D0994B984201D18B7A038671
:1016D0000123838270474FF0FF3141600021018078
:1016E00001814180817270470185828270470A467C
:1016F000002101884FF68F73194011430180704714
:1017000041627047C16270470146486A70470146AE
:10171000088D704721B1028842F00202028004E085
:1017200002884FF6FD731A400280704721B102888B
:1017300042F00402028004E002884FF6FB731A4074
:101740000280704721B1028842F08002028004E0EA
:1017500002884FF67F731A400280704702884FF666
:10176000F7731A40028002880A4302807047028899
:101770004FF6FF431A40028002880A4302807047F6
:1017800021B1028842F00102028004E002884FF693
:10179000FE731A400280704770B5002400220023B7
:1017A000058C4FF6FE7635400584028C8388048BC9
:1017B0004FF68F752C40B51E2C400D882C43751E9E
:1017C0002A408D892A434D882A43524DA84202D08F
:1017D000564DA84213D14FF6F7752A40CD892A43BA
:1017E0004FF6FB752A408D882A434FF6FF652B4044
:1017F0004FF6FF552B400D8A2B434D8A2B43838098
:1018000004838D684563028470BD70B50024002296
:101810000023058C4FF6EF7635400584028C8388D3
:10182000048B48F6FF752C404FF6FF452C400D8881
:101830004FF6FF7606EA05252C434FF6DF752A4062
:101840008D8906EA05152A434D8806EA05152A43BF
:10185000304DA84202D0354DA8421DD14FF67F75BC
:101860002A40CD894FF6FF7606EA05152A434FF642
:10187000BF752A408D8806EA05152A434FF6FF35C5
:101880002B404FF2FF752B400D8A06EA85052B434E
:101890004D8A06EA85052B43838004838D68856322
:1018A000028470BD70B5002400220023058C4FF621
:1018B000FF6635400584028C8388848B4FF68F75D4
:1018C0002C404FF6FC752C400D882C434FF6FF55ED
:1018D0002A408D894FF6FF7606EA05252A434D8872
:1018E00006EA05252A430B4DA84202D00F4DA84217
:1018F00038D14FF2FF752A40CD894FF6FF7606EAC0
:1019000005252A434FF6FF352A408D8806EA05252E
:101910002A4319E000000140000400400008004094
:10192000000C004000100040001400400004014082
:1019300000400140004401400048014000180040C0
:10194000001C0040002000404EF6FF752B404DF675
:10195000FF752B400D8A06EA05152B434D8A06EAD2
:1019600005152B43838084838D68C563028470BD15
:1019700070B5002200230024058C4EF6FF7635401A
:101980000584038C8488828B48F6FF752A404FF6C5
:10199000FF452A400D884FF6FF7606EA05252A43C3
:1019A0004DF6FF752B408D8906EA05352B434D8892
:1019B00006EA05352B43FE4DA84202D0FD4DA84254
:1019C00008D14BF6FF752C400D8A4FF6FF7606EADC
:1019D00085152C43848082838D680564038470BDE3
:1019E000002101804180818081608181C1810182EB
:1019F0004182704770B50346002000241846183015
:101A000001258D40ACB21D8CA5431D8409B1082968
:101A10000AD100EB610005684FF68F76354005600E
:101A20000568154305600FE00D1FC5F34E052844FA
:101A3000056848F6FF763540056005684FF6FF7685
:101A400006EA02263543056070BD41637047816335
:101A50007047C1637047016470470A460021018BDB
:101A60004FF68F7319401143018370470A460021D6
:101A7000018B48F6FF7319404FF6FF7303EA022308
:101A80001943018370470A460021818B4FF68F73FB
:101A900019401143818370470A460021818B48F623
:101AA000FF7319404FF6FF7303EA02231943818342
:101AB00070470A460021018B4FF6F7731940114316
:101AC000018370470A460021018B4FF2FF731940D2
:101AD0004FF6FF7303EA02231943018370470A4656
:101AE0000021818B4FF6F7731940114381837047B2
:101AF0000A460021818B4FF2FF7319404FF6FF73A6
:101B000003EA02231943818370470A460021018BAF
:101B10004FF6FB7319401143018370470A460021B9
:101B2000018B4FF6FF3319404FF6FF7303EA022390
:101B30001943018370470A460021818B4FF6FB73DE
:101B400019401143818370470A460021818B4FF66B
:101B5000FF3319404FF6FF7303EA022319438183D1
:101B600070470A460021018B4FF67F7319401143DD
:101B7000018370470A460021018BC1F30E014FF625
:101B8000FF7303EA02231943018370470A460021C9
:101B9000818B4FF67F7319401143818370470A464A
:101BA0000021818BC1F30E014FF6FF7303EA02237C
:101BB0001943818370470A460021018C4FF6FD735B
:101BC00019401143018470470A460021018C4FF6E9
:101BD000F77319401143018470470A460021018CB4
:101BE0004FF6DF7319404FF6FF7303EA02131943F0
:101BF000018470470A460021018C4FF67F7319401B
:101C00004FF6FF7303EA02131943018470470A4633
:101C10000021018C4FF6FF5319404FF6FF7303EA82
:101C200002231943018470470A460021018C4FF2B8
:101C3000FF7319404FF6FF7303EA0223194301842F
:101C400070470A460021018C4DF6FF7319404FF68C
:101C5000FF7303EA023319430184704730B5002350
:101C600001248C40A3B2048C9C430484048C02FAAB
:101C700001F5ADB22C43048430BD30B500230424FB
:101C80008C40A3B2048C9C430484048C02FA01F5BA
:101C9000ADB22C43048430BD828B4FF2FF331A4027
:101CA0008283828B4FF6FF7303EA01231A438283F8
:101CB0007047F0B50C461546002100220026078C1F
:101CC0004EF6FF7C07EA0C070784818B028C4FF6E7
:101CD000FF7707EA043640F6FF4739404FF6FF77B3
:101CE00007EA052739434FF6FF7707EA03373943F9
:101CF00045F6FF773A4046F480573A4381830284A1
:101D0000F0BD828B4FF6F3731A408283828B0A43B5
:101D100082837047F0B50C4615460021002200264C
:101D2000078C4FF6FF6C07EA0C070784818B028C47
:101D30004FF6FF7707EA04264FF60C7739404FF647
:101D4000FF7707EA03172F4339434FF2FF573A4013
:101D500046F480773A4381830284F0BD028B4FF2D0
:101D6000FF331A400283028B4FF6FF7303EA01230D
:101D70001A4302837047F0B50C4615460021002235
:101D80000026078C4FF6EF7C07EA0C070784018BCF
:101D9000028C4FF6FF7707EA041640F6FF473940FA
:101DA0004FF6FF7707EA033739434FF6FF7703E033
:101DB000000001400004014007EA052739434FF6BF
:101DC0005F773A4046F010073A4301830284F0BD42
:101DD000028B4FF6F3731A400283028B0A4302838D
:101DE0007047F0B50C46154600210022068C4FF6D0
:101DF000FE773E400684018B028C4FF60C76314014
:101E00007E1C06EA03162E4331434FF6F576324028
:101E100044F00106324301830284F0BD70B50546EB
:101E20000C46208850B92389A28861882846FFF78C
:101E3000D8FFE1882846FFF7CBFF25E0208804285B
:101E40000AD12389A28861882846FFF794FFE18898
:101E50002846FFF783FF17E0208808280AD1238946
:101E6000A28861882846FFF755FFE1882846FFF7DA
:101E700048FF09E02389A28861882846FFF719FFF7
:101E8000E1882846FFF708FF70BD002101804180EE
:101E9000012181800021C180018170472DE9F0413D
:101EA00005460C4600260127608808B9022600E096
:101EB0000026A088012801D1022700E00127208800
:101EC000A0B92389A28861882846FFF78AFFE188A4
:101ED0002846FFF77DFF23893A4631462846FFF71B
:101EE0004AFFE1882846FFF739FF13E02389A288DB
:101EF00061882846FFF73FFFE1882846FFF72EFF5D
:101F000023893A4631462846FFF76BFFE188284689
:101F1000FFF75EFFBDE8F0810146486B7047014660
:101F2000886B70470146C86B70470146086C704764
:101F30000A884B881A438B881A43CB881A430B892B
:101F40001A434B891A438B891A43A0F844207047DF
:101F50000021018041808180C18001814181818196
:101F6000704731B1B0F8442042F40042A0F8442058
:101F700005E0B0F84420C2F30E02A0F844207047F8
:101F800021B1828842F00402828004E082884FF608
:101F9000FB731A408280704721B1828842F00102AF
:101FA000828004E082884FF6FE731A408280704778
:101FB0001AB183890B43838102E083898B43838138
:101FC00070478182704702460020138A0B400BB194
:101FD000012000E000207047CA430282704730B5FC
:101FE0000246002000230024158A05EA0103958992
:101FF00005EA010413B10CB1012000E0002030BD5E
:10200000CA430282704741EA0203A0F84830704791
:102010001AB183890B43838102E083898B438381D7
:10202000704721B1828842F00802828004E08288F1
:102030004FF6F7731A408280704701894FF6F872A5
:102040001140018170470A46002101894FF68F73C4
:10205000194011430181704730B504460D462946A9
:102060002046FFF7F0FF208940F00700208130BDB7
:102070002DE9F04104460D4616461F46602D06D157
:102080003B46012231462046FFF775FE05E03B4600
:10209000012231462046FFF7A4FE29462046FFF7DD
:1020A000D2FF208940F007002081BDE8F08130B5E3
:1020B0000C4600210189C9B24FF6FF7505EA0325D8
:1020C000154325432943018130BD2DE9F0410546E3
:1020D0000E4617469846002443463A46314628465F
:1020E000FFF7E5FF2C894FF6F870044044F0070431
:1020F0004FF68F70044044F070042C81BDE8F081ED
:10210000F0B504460D4616461F463B463246294664
:102110002046FFF7CCFF208940F480402081F0BDAD
:1021200082884FF68F731A40828082880A438280A9
:10213000704702894FF6F8731A40028102890A43F8
:102140000281704702894FF67F731A40028102892B
:102150000A4302817047F0B50C4615461E46002121
:10216000002200230189028B038C4FF6F877394057
:1021700021434FF6FC473A4040F201173A434FF6ED
:10218000DD773B404FF6FF7707EA06172F433B43C7
:10219000018102830384F0BD21B1828842F0800274
:1021A000828004E082884FF67F731A4082807047F5
:1021B000A0F850107047000010B50446FA48844259
:1021C00008D101211020FFF714F900211020FFF79A
:1021D00010F957E0F548844209D101214804FFF77E
:1021E000F7F800214FF40030FFF7F2F84AE0F0482A
:1021F000844209D101218804FFF7EAF800214FF455
:102200008020FFF7E5F83DE0EA48844209D101214A
:10221000C804FFF7DDF800214FF40020FFF7D8F8DD
:1022200030E0E548844209D101210805FFF7D0F8E4
:1022300000214FF48010FFF7CBF823E0DF48844201
:1022400008D101212020FFF7D4F800212020FFF73A
:10225000D0F817E0DA48844209D101218807FFF756
:10226000B7F800214FF08040FFF7B2F80AE0D548F8
:10227000844207D101214005FFF7AAF8002160053B
:10228000FFF7A6F810BD2DE9FF4705460E460024CE
:10229000A14600BFA046B08900B100BF2C8A24F43B
:1022A0004054F08804432C82AC8941F20C60844392
:1022B000B08831890843718908430443AC81AC8AF2
:1022C00024F44074B0890443AC826846FEF74BFFA7
:1022D000B548854202D0B948854202D1DDF80C905C
:1022E00001E0DDF80890A88900F4004040B109EB56
:1022F000C90000EB091031684900B0FBF1F707E0B5
:1023000009EBC90000EB091031688900B0FBF1F757
:102310006420B7FBF0F004012009642101FB107870
:10232000A88900F4004040B1322000EBC800B0FBA7
:10233000F1F000F00700044308E0322000EB081041
:102340006421B0FBF1F000F00F0004432C81BDE8E4
:10235000FF874FF41651016000218180C180018107
:102360000C21418100218181704710B50246002077
:10237000108A20F470600B884C8823438C88234398
:10238000CC8823431843108210BD00210180418076
:102390008180C180704721B1828942F400528281DC
:1023A00004E082894DF6FF731A4082817047028BE8
:1023B00002F47F420283028B0A430283704721B1F9
:1023C000828942F40042828103E08289C2F30E02D4
:1023D0008281704721B1828A42F40062828204E0E5
:1023E000828A4FF2FF731A4082827047C1F308025B
:1023F0008280704701468888C0F308007047028ACF
:102400004FF6F0731A400282028A0A430282704732
:1024100021B1828942F00202828104E082894FF672
:10242000FD731A408281704782894FF2FF731A4010
:10243000828182890A4382817047028A4FF6DF7364
:102440001A400282028A0A430282704721B1028A3C
:1024500042F48042028204E0028A4BF6FF731A4083
:1024600002827047818941F001018181704721B169
:10247000828A42F00802828204E0828A4FF6F77371
:102480001A4082827047028BD2B20283028B42EAE8
:1024900001220283704721B1828A42F020028282A7
:1024A00004E0828A4FF6DF731A408282704721B1BE
:1024B000828A42F01002828204E0828A4FF6EF7331
:1024C0001A4082827047828A4FF6FB731A408282DA
:1024D000828A0A438282704721B1828A42F00202D4
:1024E000828204E0828A4FF6FD731A40828270472E
:1024F0001AB1838A0B43838202E0838A8B438382EF
:102500007047F0B50346002400260025002040F661
:102510006A17B94200D100BF1846C1F3421401F056
:102520001F06012707FA06F5012C01D10C3004E043
:10253000022C01D1103000E014301AB107682F438B
:10254000076002E00768AF430760F0BD0246002065
:10255000B1F5007F00D100BF13880B400BB1012003
:1025600000E00020704701F40072B2F5007F00D156
:1025700000BFCA430280704770B5024600240023A2
:102580000025002040F66A16B14200D100BFC1F319
:10259000421501F01F03012606FA03F3012D13D1A2
:1025A0009689334017E000000010014000440040CD
:1025B00000480040004C0040005000400014014022
:1025C00000780040007C0040022D02D1168A334082
:1025D00001E0968A33400C12012606FA04F41688AC
:1025E000344013B10CB1012000E0002070BD10B5E3
:1025F0000022002340F66A14A14200D100BF0A1253
:1026000001249440A3B2DC43048010BD0CB500202B
:10261000019000907648006840F48030744908606A
:1026200000BF7348006800F4003000900198401C1F
:102630000190009818B90198B0F5A06FF1D16C48DD
:10264000006800F4003010B10120009001E000208B
:1026500000900098012846D165484030006840F05D
:1026600080506349403108606248006840F440404F
:10267000604908605E48083000685D4908310860BC
:102680000846006840F4004008600846006840F4CE
:10269000A05008605848091F0860081F006840F0F3
:1026A0008070091F086000BF5148006800F000708A
:1026B0000028F9D040F20570504908604C480830B5
:1026C000006820F003004A490831086008460068A5
:1026D00040F00200086000BF45480830006800F084
:1026E0000C000828F8D10CBD10B54548006840F42E
:1026F0007000434908603E48006840F001003C49D2
:10270000086000203A4908310860394800683D49AE
:102710000840374908603C48091D0860081F0068E8
:1027200020F48020091F0860002031490C31086026
:10273000FFF76CFF4FF0006031498039086010BD31
:1027400070B500200022022300240221284D083504
:102750002D6805F00C0020B1042806D0082834D1DB
:1027600007E02A4D2A4E356033E02A4D284E356069
:102770002FE01F4D2D1D2D68C5F380541C4D2D1DC0
:102780002D6805F03F0154B1224DB5FBF1F5184E0F
:10279000361D3668C6F3881605FB06F209E01B4DA8
:1027A000B5FBF1F5124E361D3668C6F3881605FBEB
:1027B00006F20F4D2D1D2D68C5F301456D1C6B00F4
:1027C000B2FBF3F5124E356003E0104D104E35604C
:1027D00000BF00BF064D08352D68C5F303150E4E2A
:1027E000705D0B4D2D68C540094E356070BD000011
:1027F000003802400070004008544007003C02408E
:1028000088ED00E0FFFFF6FE103000240024F40005
:10281000B000002000127A00B40000200648804773
:1028200006480047FEE7FEE7FEE7FEE7FEE7FEE7B5
:10283000FEE7FEE7FEE7FEE7E9260008890100085B
:102840007FB504460D46089E41F2682005510020E0
:10285000A4F84605002140F24C500153801E01535C
:102860000020A4F8480584F86E19C4F8D80440F292
:10287000DC4001510020C4F8E80440F2EC40015172
:102880000298C4F8E00440F2E440039901510020AA
:10289000206060602072012141F26D200155401ED0
:1028A0000655204602F081FF7FBD2DE9FE43064616
:1028B0000F4614461D46DDF828800195CDF80880A6
:1028C000009439463046DDE90123FFF7B9FF304671
:1028D000BDE8FE837FB582B004460D460A9E009691
:1028E00029462046DDE90423FFF7AAFF204606B06B
:1028F00070BD7FB584B0044616461D462A46314653
:1029000004F27B4003F0CCFE9DF8160000F01F019E
:10291000BDF8040061F30700ADF80400BDF8140031
:10292000ADF806009DF81600C0F34011BDF8040094
:1029300061F30F20ADF8040004F27B400390029590
:1029400001A9204602F08EFE08B070BD2DE9F04FBF
:1029500085B004460E4617469846DDF838B0DDF8D7
:102960004CA0DDF8409004F17B0505F8018B05F8DB
:1029700001BB4A4604F17D000F9903F091FE1198C6
:102980000390BDF8000066F30100ADF8000009F106
:102990000200019004F17B000290BDF800006AF390
:1029A000CF00ADF80000129880B2ADF80200BDF87B
:1029B000000067F38200ADF8000000200490694633
:1029C000204602F0C7FB05B0BDE8F08F2DE9F04FBF
:1029D00085B004460E4617469846DDF838B0DDF857
:1029E00048A0DDF8409004F17B0505F8018B05F85F
:1029F00001BB4A4604F17D000F9903F051FE139884
:102A00000390BDF8000066F30100ADF8000009F185
:102A10000200019004F17B000290BDF800006AF30F
:102A2000CF00ADF80000119880B2ADF80200BDF8FB
:102A3000000067F38200ADF8000014980490694626
:102A4000204602F087FB05B0BDE8F08F70B5044664
:102A50000D462946204602F07DFB70BD014641F23D
:102A60006820405870472DE9FC4104460E46174641
:102A700006F10C052878697800EB0120A4F8F00431
:102A8000AD1C2878697800EB0120A97800EB0140A3
:102A9000E97800EB0161C4F8F2142D1D20222946CB
:102AA00004F2F64003F0FCFDB4F8F004CE21F54B3F
:102AB000F5A2CDE90010F6A1FE4804F0A3FC41F216
:102AC00068210859095909680A6A00219047D4F811
:102AD000F204D021EB4BECA2CDE90010F6A1F548B1
:102AE00004F090FC41F268210859095909680A6A02
:102AF0000021904704F2F640D621E24BE2A2CDE954
:102B00000010F6A1EB4804F07DFC41F26821085961
:102B1000095909680A6A00219047BDE8FC812DE93E
:102B2000F04188B004460D4616464FF6FF70A4F8F3
:102B3000F0040021C4F8F21440F2F6400155642775
:102B40004FF00308002007900DB1284601E0AFF2D6
:102B5000E900CDE90378CDE90506012007A90022A7
:102B60001346CDE90021029002212046FFF72EFFF7
:102B700008B0BDE8F0812DE9FF4704460D469246B6
:102B80002868C0F309201038022874D82868C0F3D8
:102B90000920A0F1100205F10C0103A803F080FD4B
:102BA000BDF80C00092867D2DFE800F00543543275
:102BB0006778899BAD00E720D14BB3A2D1A10090EB
:102BC000BC4804F01FFC41F2682108590959096802
:102BD0000A6A002190472046FFF740FF80460068C0
:102BE000816940468847012084F87A002046FFF733
:102BF00035FF81460068C16948468847D4F84205D8
:102C000020B1D4F84215204602F03DF9BDE8FF8717
:102C1000F120BB4B9CA2C5A10090A64804F0F2FB9A
:102C200041F268210859095909680A6A0021904748
:102C300098E0F420B24BC7A2C8A100909D4804F0D0
:102C4000E1FB41F268210859095909680A6A002123
:102C5000904787E0F720AA4BBEA2CBA100909548F1
:102C600004F0D0FB41F268210859095909680A6A41
:102C70000021904776E08AE05CE0FA20A04BB5A204
:102C8000CBA100908B4804F0BDFB41F268210859AC
:102C9000095909680A6A0021904763E0FE20984BB1
:102CA000ACA2CFA10090834804F0ACFB41F26821B4
:102CB0000859095909680A6A0021904752E04FF4FF
:102CC00081708F4BA3A2D64900907A4804F09AFBFA
:102CD00041F268210859095909680A6A0021904798
:102CE00040E040F20710864B9AA2CEA100907148B6
:102CF00004F088FB41F268210859095909680A6AF9
:102D0000002190472EE040F20B107D4B91A2D1A103
:102D10000090684804F076FB41F26821085909598F
:102D200009680A6A00219047002211462046FFF7F1
:102D3000F6FE17E0BDF80C10204601F096FC80B9B5
:102D40004FF489706E4B83A2CFA10090594804F0D4
:102D500059FB41F268210859095909680A6A00219A
:102D6000904700BF00BF2046FFF778FE0646006888
:102D7000816930468847002084F87A002046FFF7B2
:102D80006DFE07460068C1693846884717E0288904
:102D900080B22968C1F3046140F21D12584BCDE99D
:102DA000002102906BA2C3A1424804F02BFB41F228
:102DB00068210859095909680A6A0021904700BF2B
:102DC00024E7F0B587B004460F4615461E4630226C
:102DD000394604F2165003F063FC0DB1284601E0B9
:102DE000AFF26D2003214FF47A72CDE90506CDE9EB
:102DF00003212C2104F2165001220023CDE90020EA
:102E000002911A4602212046FFF7E0FD07B0F0BD0F
:102E100070B58AB004460D4616464FF6FF7009900D
:102E2000012008902868C0F30920103802280AD829
:102E30002868C0F30920A0F1100205F10C0109A8CF
:102E400003F02EFC17E0288980B22968C1F30461E1
:102E500040F26312A64BCDE9002102903DA295A15C
:102E6000144804F0CFFA41F2682108590959096859
:102E70000A6A00219047BDF82400032800D039E1F8
:102E80007DE10000967D00085354415455530000E5
:102E900025732025732C6C696E652025643A207695
:102EA000657273696F6E2061636B203D2025640A33
:102EB00000000000311C002025732025732C6C6954
:102EC0006E652025643A2076657273696F6E2063A3
:102ED0007263203D20307825580A00002573202594
:102EE000732C6C696E652025643A2076657273696F
:102EF0006F6E206E616D65203D2025730A00000015
:102F0000857D000825732025732C6C696E6520254E
:102F1000643A2041637469766174696F6E205375F9
:102F2000636365737366756C6C790A00257320257D
:102F3000732C6C696E652025643A206E6577206479
:102F400065766963652074727920616761696E0ACC
:102F5000000000004552524F52000000257320250A
:102F6000732C6C696E652025643A20616374697600
:102F70006174652057726F6E6720706168616D655E
:102F80007465720A0000000025732025732C6C699B
:102F90006E652025643A20616374697661746520EA
:102FA000656E636F6465206572726F720A0000005F
:102FB00025732025732C6C696E652025643A206189
:102FC0006374697661746520444A49474F206E6F87
:102FD0007420636F6E6E65637465640A00000000A0
:102FE00025732025732C6C696E652025643A206159
:102FF0006374697661746520444A49474F206E6F57
:103000007420636F6E6E656374656420746F2074E2
:10301000686520696E7465726E65740A0000000050
:10302000A481000825732025732C6C696E6520250A
:10303000643A2061637469766174652057726F6EBB
:10304000672053444B207065726D697373696F6EAE
:103050000A00000025732025732C6C696E652025FD
:10306000643A2061637469766174652053444B202F
:1030700076657273696F6E20646964206E6F742068
:103080006D617463680A000025732025732C6C69D8
:103090006E652025643A205768696C652063616C11
:1030A0006C696E6720746869732066756E637469F5
:1030B0006F6E000025732025732C6C696E652025CA
:1030C000643A2041434B20697320657863657074CE
:1030D000696F6E2C73656573696F6E206964202556
:1030E000642C73657175656E63652025640A000044
:1030F000A97D000805DC48B101281AD002286DD14D
:103100002AE0042864D0C928F9D18DE040F26B1080
:10311000F74BAFF28C22F7490090F74804F072F9B0
:1031200041F268210859095909680A6A0021904743
:10313000A7E04FF4B870EE4BAFF2B422EFA10090CD
:10314000ED4804F05FF941F268210859095909680E
:103150000A6A0021904794E040F27310E44BAFF20A
:10316000D822F2A10090E44804F04CF941F2682121
:103170000859095909680A6A0021904781E04FF40B
:10318000BB70DB4BAFF20032F3A10090DA4804F0E1
:1031900039F941F268210859095909680A6A002178
:1031A00090470020AFF2973102224FF4FA73CDE935
:1031B0000332CDE90510012008A900220346CDE91C
:1031C00000210290024602212046FFF7FFFB58E053
:1031D00040F27B10C64BAFF2503200E037E0E8A17E
:1031E0000090C54804F00EF941F2682108590959C8
:1031F00009680A6A0021904700200890AFF2EF3179
:1032000002224FF4FA73CDE90332CDE90510012013
:1032100008A900220346CDE90021029002460221BE
:103220002046FFF7D3FB2CE040F28110B04BAFF209
:10323000A832DDA10090B04804F0E4F841F2682122
:103240000859095909680A6A0021904719E0BDF830
:103250002410204601F009FA90B940F28710A44BDF
:10326000AFF21032AFF2E0110090A34804F0CAF8B8
:1032700041F268210859095909680A6A00219047F2
:1032800000BF00BF0AB070BDF0B589B007460C465C
:1032900015461E4608940DB1284601E0AFF28F4056
:1032A00002214FF4FA72CDE90506CDE90321012090
:1032B00008A900220346CDE90021029002213846E8
:1032C000FFF784FB09B0F0BD7FB505460C461646F6
:1032D0004FF6FF7003902068C0F3092010380228D1
:1032E00024D82068C0F30920A0F1100204F10C01D9
:1032F00003A803F0D5F9BDF80C10284601F0B5F984
:1033000000282DD14FF49770B54BAFF2B832AFF221
:1033100088210090784804F075F841F268214859F6
:10332000495909680A6A0021904719E0208980B24A
:103330002168C1F3046140F23312A94BCDE90021A9
:103340000290AFF2F032AFF294216B4804F05AF8D9
:1033500041F268214859495909680A6A0021904791
:103360007FBD2DE9F04188B004460E4615461F4644
:10337000DDF83880642D13DD95209A4BAFF22C4296
:1033800099A100905C4804F03DF841F26821085989
:10339000095909680A6A0021904708B0BDE8F08120
:1033A0000FB1384601E0AFF2DF0002214FF4FA72AC
:1033B000CDE90508CDE90321FE2000231A46CDE919
:1033C000016500902046FFF701FB00BFE5E77CB5F3
:1033D00004460D4616464FF6FF7001902868C0F36C
:1033E00009201038022809D82868C0F30920A0F164
:1033F000100205F10C0101A803F052F9BDF8040018
:1034000010B1012826D112E040F24710804BAFF2F4
:10341000885280A10090384803F0F4FF41F26821FF
:103420000859095909680A6A002190472CE04FF4AD
:10343000A570774BAFF2E44280A100902E4803F0D4
:10344000E1FF41F268210859095909680A6A002117
:10345000904719E0BDF80410204601F006F990B934
:1034600040F24F106A4BAFF21452AFF2E4310090C9
:10347000214803F0C7FF41F268210859095909683A
:103480000A6A0021904700BF00BF7CBDF0B587B03D
:1034900007460C4615461E460DB1284601E0AFF220
:1034A000D10001216422CDE90506CDE903211020D8
:1034B000CDE9000400231A46022102903846FFF7A6
:1034C00085FA07B0F0BD0A6802604A6842600A7A6D
:1034D00002727047014691F87600704770B5054654
:1034E0000C46302204F21651284603F0D9F870BD7C
:1034F000A97D0008FC810008311C002025732025CF
:10350000732C6C696E652025643A2072656C656168
:10351000736520636F6E74726F6C2073756363657F
:10352000737366756C6C790A0000000025732025A2
:10353000732C6C696E652025643A206F6274616932
:103540006E20636F6E74726F6C2073756363657346
:103550007366756C6C790A0025732025732C6C6971
:103560006E652025643A206F627461696E20636F16
:103570006E74726F6C2072756E6E696E670A0000F1
:1035800025732025732C6C696E652025643A2072A2
:10359000656C6561736520636F6E74726F6C207209
:1035A000756E6E696E670A0025732025732C6C6931
:1035B0006E652025643A20494F43206D6F64652075
:1035C0006F70656E696E672063616E206E6F742028
:1035D0006F627461696E20636F6E74726F6C0A0043
:1035E000BC7D0008787D000825732025732C6C694C
:1035F0006E652025643A20546F6F206D75636820D6
:103600006461746120746F2073656E640000000053
:10361000D17D000825732025732C6C696E652025EB
:10362000643A204672657175656E637920736574BE
:103630002073756363657373000000002573202594
:10364000732C6C696E652025643A2046726571752D
:10365000656E637920706172616D65746572206555
:1036600072726F7200000000014641F26D20405CF2
:103670007047014641F26E20405C7047014641F2BE
:103680006F20405C704770B504460D4630222946D5
:1036900004F2165003F004F870BD41F26822115094
:1036A000704741F26D221154704741F26E2211545D
:1036B000704741F26F22115470470000014601F13A
:1036C0000C0210787047024602F10C01491C087880
:1036D000704770B504460D467B222946204602F00D
:1036E000DFFF70BD0146886F7047014691F8770093
:1036F000704707B500F59061DDE90123C1E91623A4
:103700000EBDC0F8D81440F2DC431A50704707B51C
:1037100000F59061DDE90123C1E91A230EBDFEB574
:1037200004460F4607F10C0541F268221059125960
:10373000126891698847AD1C2E460220029002A8AB
:103740000921CDE9001030882B462246012103F0E3
:10375000F0FD02A81021CDE9001030882B4604F1BD
:103760000902022103F0E5FD02A80C21CDE90010B9
:1037700030882B4604F11902042103F0DAFD02A877
:103780000D21CDE9001030882B4604F125020821D7
:1037900003F0CFFD02A80C21CDE9001030882B46A4
:1037A00004F13202102103F0C4FD02A81921CDE971
:1037B000001030882B4604F13E02202103F0B9FDB1
:1037C00002A80621CDE9001030882B4604F15702EB
:1037D000402103F0AEFD02A80C21CDE90010308895
:1037E0002B4604F15D02802103F0A3FD02A80D2108
:1037F000CDE9001030882B4604F169024FF4807146
:1038000003F097FD02A80121CDE9001030882B4676
:1038100004F17602490203F08CFD02A80121CDE9F2
:10382000001030882B4604F17702890203F081FDF5
:1038300002A80221CDE9001030882B4604F178025D
:10384000890203F076FD41F268221059125912687C
:10385000D1698847D4F8D80438B140F2DC40025925
:1038600039462046D4F8D8349847FEBD70B59EB08E
:1038700004460D46642105A802F039FFAE7B2846B8
:10388000FFF71CFF02287DD12846FFF71CFF052803
:1038900079D2DFE800F00324085DCC0029462046F9
:1038A000FFF73DFFD5E0D4F8E804B8B17B20704BBA
:1038B00070A272A100907C4803F0A4FD41F268213F
:1038C0000859095909680A6A0021904740F2EC40FA
:1038D000025929462046D4F8E8349847B9E08020B8
:1038E000634B64A271A100906F4803F08BFD41F21D
:1038F00068210859095909680A6A0021904728680F
:10390000C0F30460002822DD00208DF815008DF83A
:1039100014002868C0F30460BDF8081060F30701C4
:10392000ADF80810288980B2ADF80A002879C0F3F4
:103930004210BDF8081060F30F21ADF8081005A87B
:1039400004900220039002A9204601F08BFE80E043
:10395000052E58D2DFE806F003041C31460064E06F
:1039600041F26E20005D90B19620414B41A259A1D9
:1039700000904D4803F046FD41F26821085909596D
:10398000096801E066E053E00A6A002190474CE0D4
:1039900041F26D20005D78B19C20354B35A253A1DA
:1039A0000090414803F02EFD41F268210859095961
:1039B00009680A6A0021904737E041F26F20005DF4
:1039C00078B1A2202A4B2BA24FA10090364803F0D9
:1039D00019FD41F268210859095909680A6A00214C
:1039E000904722E0A620224B22A24FA100902E4811
:1039F00003F008FD41F268210859095909680A6A6B
:103A00000021904711E0A920194B4EA24FA1CDE90A
:103A10000006254803F0F6FC41F2682108590959CF
:103A200009680A6A0021904700BF00BF11E010E05A
:103A3000B2200F4B0FA250A100901B4803F0E2FCF4
:103A400041F268210859095909680A6A002190471A
:103A500000BF00BFD4F8E00438B140F2E44002599E
:103A600029462046D4F8E03498471EB070BD0000C7
:103A7000E67D00085354415455530000257320251A
:103A8000732C6C696E652025643A205265636576F7
:103A9000696520646174612066726F6D206D6F626C
:103AA000696C650A00000000311C00202573202588
:103AB000732C6C696E652025643A206F6E626F61AD
:103AC000726453444B206C6F737420636F6E747216
:103AD0006C0A000025732025732C6C696E65202507
:103AE000643A204D6F64652041200A00257320252B
:103AF000732C6C696E652025643A204D6F646520D7
:103B00004850200A0000000025732025732C6C69A2
:103B10006E652025643A204D6F646520466F6C6C9D
:103B20006F77200A0000000025732025732C6C6934
:103B30006E652025643A204D6F646520494F43200F
:103B40000A0000004552524F520000002573202504
:103B5000732C6C696E652025643A20756E6B6F77E7
:103B60006E206D697373696F6E20636F64652030BA
:103B7000782558200A00000025732025732C6C69D5
:103B80006E652025643A206572726F722C20756E06
:103B90006B6E6F776E2042524F4144434153542025
:103BA000636F6D6D616E6420636F64650A00000071
:103BB000014601F0800018B11B2080EA410000E0BE
:103BC0004800C0B27047102103E0425CFA4B9A5C97
:103BD00042540A00A1F10103D9B2F6D17047102175
:103BE00003E0425CF54B9A5C42540A00A1F10103E8
:103BF000D9B2F6D1704710B50246102003E0135C2D
:103C00000C5C634013540300A0F10104E0B2F6D150
:103C100010BD30B50346102008E00C5C14541D5C48
:103C20006C401C5400F110040D5D15550400A0F10A
:103C30000105E8B2F1D130BD427843794370437A4F
:103C40004371437B43724273827A837883728270BA
:103C5000C178C37BC370C37AC373C379C372C171A4
:103C6000817B83798373817170474278437B437092
:103C7000437A43734379437242718278837A8370C3
:103C80008272C178C379C370C37AC371C37BC372B4
:103C9000C1738179837B8371817370472DE9F04112
:103CA0000346002234E09D5C501C1E5C901C1F5C8F
:103CB000D01C13F8008085EA0600784080EA0804EA
:103CC00085EA0600FFF774FF6040995C484098540D
:103CD00086EA0700FFF76CFF6040511C595C4840C2
:103CE000511C585487EA0800FFF762FF6040911C9E
:103CF000595C4840911C585488EA0500FFF758FF6A
:103D00006040D11C595C4840D11C5854101DC2B2AF
:103D1000102AC8DBBDE8F0812DE9F84F03460022E8
:103D200051E09C5C501C1D5C901C1E5CD01C1F5CF8
:103D300084EA0500704080EA07084046FFF738FF34
:103D400083468BEA040181EA0600FFF731FF009009
:103D5000FFF72EFF80EA08098BEA050181EA0700D8
:103D6000FFF726FF0090FFF723FF80EA080A84EAA6
:103D70000500FFF71DFF80EA0900995C4840985450
:103D800085EA0600FFF714FF80EA0A00511C595C1F
:103D90004840511C585486EA0700FFF709FF80EAA3
:103DA0000900911C595C4840911C585487EA040052
:103DB000FFF7FEFE80EA0A00D11C595C4840D11C86
:103DC0005854101DC2B2102AABDBBDE8F88F30B5D5
:103DD0000A46437F784CE35C147863400478634080
:103DE00003704378847F744D2C5D63404370837807
:103DF000C47F2C5D63408370C378047F2C5D634077
:103E0000C3701378DB0903EBC30303EB430314789C
:103E100083EA4403137004211BE0435C0C1F045D20
:103E2000634043544B1CC35CCC1E045D63404C1C7C
:103E300003558B1CC35C8C1E045D63408C1C0355B6
:103E4000CB1CC35C4C1E045D6340CC1C03550B1D96
:103E5000D9B21029E1DB037C047B574D2C5D634014
:103E60000374437C447B2C5D63404374837C847B7C
:103E70002C5D63408374C37CC47B2C5D6340C3743E
:103E800014211BE0435C0C1F045D634043544B1C36
:103E9000C35CCC1E045D63404C1C03558B1CC35C8F
:103EA0008C1E045D63408C1C0355CB1CC35C4C1EF4
:103EB000045D6340CC1C03550B1DD9B22029E1DB06
:103EC00030BD30B50A461C211BE0435C0C1F045D6D
:103ED000634043544B1CC35CCC1E045D63404C1CCC
:103EE00003558B1CC35C8C1E045D63408C1C035506
:103EF000CB1CC35C4C1E045D6340CC1C03550B1FE4
:103F0000D9B21029E1DC037C047B2B4D2C5D63408E
:103F10000374437C447B2C5D63404374837C847BCB
:103F20002C5D63408374C37CC47B2C5D6340C3748D
:103F30000C211BE0435C0C1F045D634043544B1C8D
:103F4000C35CCC1E045D63404C1C03558B1CC35CDE
:103F50008C1E045D63408C1C0355CB1CC35C4C1E43
:103F6000045D6340CC1C03550B1FD9B20029E1DC72
:103F7000137803F001030BB18D2300E000231478C4
:103F800083EA64031370437F0B4CE35C1478634053
:103F90000478634003704378847F074D2C5D634051
:103FA00043708378C47F2C5D63408370C378047F43
:103FB0002C5D6340C37030BDF27D0008F27E0008C6
:103FC00078B505460E4601200090002407E0315DDB
:103FD00005F14000015520380155601CC4B2202C69
:103FE000F5D3082404E0694605F14000FFF7EFFE31
:103FF000601EC0B20400F6D178BD0146002008E082
:10400000002301F140021354203A13540B54421C74
:10401000D0B22028F4D3704778B504460E46224625
:1040200004F120013046FFF7F4FD01250120009046
:104030001BE03046FFF7C7FD3046FFF7FDFD304679
:10404000FFF72CFE05F0010028B104F11001304605
:10405000FFF7D1FD07E069462046FFF7B8FE21468D
:104060003046FFF7C8FD681CC5B20E2DE1DB3046B7
:10407000FFF7A9FD3046FFF7DFFD69462046FFF751
:10408000A6FE21463046FFF7B6FD78BD78B504465A
:104090000D46224604F140012846FFF7BAFD2846A6
:1040A000FFF7E3FD2846FFF79AFD0E2680200090DB
:1040B00019E006F0010048B169462046FFF701FF0C
:1040C00004F110012846FFF796FD03E0214628463B
:1040D000FFF791FD2846FFF71FFE2846FFF7C5FDB5
:1040E0002846FFF77CFD701EC0B20600E1D12146D4
:1040F0002846FFF780FD78BD30B5CBB280EA0302D9
:10410000D4B2FE4D35F8144084EA202030BD30B5DD
:10411000CBB280EA0302D4B2F94D55F8244084EAC8
:10412000102030BDF0B505460E4643F6A327002407
:1041300005E0295D3846FFF7DFFF0746641CB442FF
:10414000F7D33846F0BDF0B505460E4643F6A32733
:10415000002405E0295D3846FFF7D9FF0746641CB7
:10416000B442F7D33846F0BD70B504460B25A0889D
:10417000461BA01D81192A4602F092FAA11D48197A
:10418000314602F0B4FAA58070BD2DE9F04F99B028
:1041900080460C4615462079C0F3421010B919B07C
:1041A000BDE8F08F2068C0F309200C2800D1F6E7A5
:1041B0002068C0F30920102800D8F0E704F10C0BA8
:1041C0002068C0F30920A0F1100A4FEA1A1900274D
:1041D00008F2064101A8FFF7F3FE002605E00BEB0D
:1041E000070101A8A8471037761C4E45F7D301A850
:1041F000FFF703FFAFF26B10854208D1217901F080
:104200001F012068C1EB102161F31120206000BF65
:10421000C5E710B50446A08848B1A088401EA0801C
:10422000A08820B1A288E11DA01D02F039FA10BDBE
:104230002DE9F0470446A51DA0880C3886B205F18B
:104240000C082088801B87B205EB070932464146DF
:10425000484602F025FA0C20A0802046FFF7D9FF3F
:1042600027806088401C6080BDE8F087F0B5054677
:104270002C462E462078AA2800D0F0BD2068C0F336
:10428000854000B1F9E72068C0F30920B0F5806FE0
:1042900000DDF2E72068C0F309200C2805D920686A
:1042A000C0F30920102800D2E7E70A213046FFF7C3
:1042B00039FFA16860F31F41A1602068C0F30920A5
:1042C000102808D32068C0F30920071F394630465C
:1042D000FFF739FFF05100BFCFE77CB504460E462B
:1042E00000208DF806008DF805008DF804000025EB
:1042F0000EE020788DF8040060788DF805006A469D
:1043000080A101A802F008FA00987055A41C6D1C49
:10431000202DEEDB7CBD70B505460C46A61DAFF228
:10432000932231462046FFF730FFA11D284600F0BA
:10433000B6FD2046FFF718FF70BD70B506460C4667
:10434000A51D2868C0F309212846FFF7FCFE20B907
:1043500021463046FFF7DFFF02E02046FFF768FF07
:1043600070BD70B506460D46AC1D2078AA281ED13A
:104370002068C0F38540D0B92068C0F30920B0F5AB
:10438000806F14DC2068800F88B96068000A70B9FB
:104390000C212046FFF7C6FE48B92068C0F309206B
:1043A0000C2807D129463046FFF7B5FF02E0284622
:1043B000FFF72FFF70BD70B505460C46A61DA088FF
:1043C0000C2800D270BDA0880C2804D121462846B4
:1043D000FFF7C7FF09E0A0883168C1F309218842CF
:1043E00003D121462846FFF7A8FF00BFEAE7F8B54A
:1043F00005460C461646A088B0F5806F06DAA188FF
:10440000A01D4654A088401CA08016E040F29F20CA
:104410003D4B3EA23FA10090464802F0F3FF41F21F
:1044200068214859495909680A6A00219047A188BA
:10443000A01D02F05CF90020A080F8BD70B5044614
:104440000D461646324629462046FFF7D0FF29463C
:104450002046FFF7B0FF70BD70B504460D46002141
:1044600040F24A5001534FF48060A4F848052A46B0
:1044700004F5A9612046FFF7E1FF40F24A50005BD6
:10448000A8B10BE0B4F84815481CA4F8480504F29C
:104490004E50425C811F2046FFF7D0FFB4F848051C
:1044A000B0F5806FEEDB002140F24A50015370BD41
:1044B00070472DE9F84F0646884691461D46DDE9CE
:1044C0000ABA4446B5F5806F02DD0020BDE8F88FDA
:1044D00096F86E0980B9BAF1000F53D04FF45E70B0
:1044E000154B0AA215A10090124802F08BFF41F271
:1044F0006821885989593FE044E00000C400002049
:10450000C402002025780000FA7F00084552524F6F
:104510005200000025732025732C6C696E652025E0
:10452000643A20627566666572206F766572666CA5
:104530006F770000311C0020F27F000825732025D2
:10454000732C6C696E652025643A2043616E206E81
:104550006F742073656E6420656E636F646520649C
:104560006174612C206E6F20617661696C61626C90
:1045700065206B657900000009680A6A0021904790
:104580000020A3E715B1B9F1000F01D10C2702E01B
:1045900005F1100087B2BAF1000F0AD02846E917DA
:1045A00005EB11710911A5EB0111C1F1100139449D
:1045B0008FB2206820F0FF00AA302060206867F3E7
:1045C00011202060206820F47C0020600C98216875
:1045D00060F31C612160BBF1000F01D0012100E0FC
:1045E0000021206861F35D702060206820F0404069
:1045F0002060BAF1000F09D02846E91705EB1171C8
:104600000911A5EB0111C1F1100100E00021626860
:1046100061F304026260BAF1000F01D0012100E0F1
:104620000021606861F347106060207960600D9838
:10463000A16860F30F01A160208980B2A060B9F188
:10464000000F06D02DB12A46494608F10C0002F0B1
:1046500027F8AFF23B62214606F5A960FFF795FD0A
:104660004046FFF703FE384630E77CB504460D466A
:104670004FF60171681A8D4231D004DC45B1B5F5B1
:104680007F4F68D117E001283DD0FE2863D14EE06E
:1046900040F273203A4B3BA23CA10090414802F00B
:1046A000B1FE41F268210859095909680A6A0021D6
:1046B000904701207CBD40F27620314BAFF2B4121E
:1046C00039A10090374802F09DFE41F26821085957
:1046D000095909680A6A002190470020EAE740F278
:1046E0007920274BAFF2DC123CA100902D4802F05C
:1046F00089FE41F268210859095909680A6A0021AE
:1047000090470020D6E74FF41F701D4BAFF20422F4
:104710003EA10090234802F075FE41F2682108593D
:10472000095909680A6A002190470020C2E740F24F
:104730007F20134BAFF22C223FA10090194802F0CA
:1047400061FE41F268210859095909680A6A002185
:1047500090470020AEE740F28320094BAFF254228D
:1047600044A1CDE900050F4802F04CFE41F268215A
:104770000859095909680A6A00219047002099E7F9
:1047800004800008535441545553000025732025DC
:10479000732C6C696E652025643A2053554343455C
:1047A00053532E00311C002025732025732C6C6977
:1047B0006E652025643A2057726F6E6720656E63C0
:1047C0006F6465204B65792C204163746976617450
:1047D0006520616761696E2E000000002573202549
:1047E000732C6C696E652025643A20506C6561738A
:1047F00064206F627461696E20636F6E74726F6C97
:1048000020616E642072657472792E0025732025F4
:10481000732C6C696E652025643A204E65656420B2
:10482000686967686572204C6576656C20616363B2
:104830006573732E0000000025732025732C6C69AE
:104840006E652025643A20436865636B20796F7537
:104850007220486172647761726520636F6E6E6565
:104860006374696F6E20616E642072657472792E54
:104870000000000025732025732C6C696E652025CF
:10488000643A20556E6B6F776E2041434B20636F07
:1048900064653A2030782578000000000160704798
:1048A0002DE9FF4106460C4617462068C0F3092053
:1048B000103802281ED82068C0F30920A0F1100289
:1048C00004F10C0103A801F0EBFEBDF80C005C2123
:1048D000B24BB3A2CDE90010B3A1BF4802F092FDE4
:1048E0003046FEF7BBF8054600680021026A2846FC
:1048F000904718E0208980B22168C1F304616122E9
:10490000A64BCDE900210290B4A2B6A1B24802F0B4
:1049100079FD3046FEF7A2F8054600680021026ADC
:104920002846904700BFBDE8FF81F0B587B0044638
:104930000D4616461F4665712079401C20710EB148
:10494000304601E0AFF2A70003216422CDE905075C
:10495000CDE903210221201D0122CDE90020029191
:10496000134600222068FEF731F807B0F0BD2DE9AC
:10497000FF4106460C4617462068C0F30920103850
:1049800002281ED82068C0F30920A0F1100204F10B
:104990000C0103A801F084FEBDF80C004921A04BD6
:1049A0007FA2CDE900109FA18B4802F02BFD30467D
:1049B000FEF754F8054600680021026A2846904731
:1049C00018E0208980B22168C1F304614D22944B24
:1049D000CDE90021029081A282A17F4802F012FD60
:1049E0003046FEF73BF8054600680021026A28467B
:1049F000904700BFBDE8FF81F0B589B004460D4681
:104A000016461F4608950EB1304601E0AFF2A100F0
:104A100001210022CDE90507CDE90321084608A9B7
:104A20000522CDE900210290012300220221206805
:104A3000FDF7CCFF09B0F0BD30B587B004460D4698
:104A400000200122CDE903020590069011200321E8
:104A5000CDE9001502901346002211462068FDF7AB
:104A6000B5FF07B030BD10B5C2B004466846216836
:104A7000FEF72FFE7C2269461FA801F011FE1022CE
:104A80000DF185013EA801F00BFE9DED3E0ADDED26
:104A90003F0A9DED401ADDED411A42B010BD30B520
:104AA000BFB005460C4601A82168FEF712FE7C2225
:104AB00001A920A801F0F4FD19220DF1BE0128463C
:104AC00001F0EEFD3FB030BD30B5BFB005460C463D
:104AD00001A82168FEF7FDFD7C2201A920A801F0B4
:104AE000DFFD0D220DF1A501284601F0D9FD3FB0F3
:104AF00030BD10B5C2B0044601A82168FEF7E9FD3B
:104B00007C2201A920A801F0CBFDDDF899003F909F
:104B1000DDF89D004090DDF8A10041909DED3F0A39
:104B2000DDED400A9DED411A42B010BD10B5C2B096
:104B3000044601A82168FEF7CCFD7C2201A920A82B
:104B400001F0AEFDDDF8B2003F90DDF8B600409018
:104B5000DDF8BA0041909DED3F0ADDED400A9DED84
:104B6000411A42B010BD30B5BFB004460D4601A891
:104B70002968FEF7AEFD7C2201A920A801F090FD76
:104B8000DDF8D7002060BDF8DB00A0803FB030BD6D
:104B900001460868704701607047000020800008E7
:104BA000535441545553000025732025732C6C69D0
:104BB0006E652025643A207461736B2072756E6E89
:104BC000696E67207375636365737366756C6C7962
:104BD0002C25640A00000000311C00204552524F71
:104BE0005200000025732025732C6C696E6520250A
:104BF000643A2041434B2069732065786365707483
:104C0000696F6E2C73656573696F6E20696420250A
:104C1000642C73657175656E63652025640A0000F8
:104C20001480000825732025732C6C696E6520257F
:104C3000643A2043616C6C206261636B2C30782590
:104C4000780A000070B505460C4624B1214604A040
:104C500002F0C8FB03E0034901A002F0C3FB70BDF2
:104C600025730000311C002030B502460B466BB1A5
:104C70001046D41702EB14742411A2EB0414C4F1EF
:104C8000100502F110042C44A1B202E002F1100060
:104C900081B2084630BDF8B504460D462F46396846
:104CA000C1F3092241F268210859095909688B6842
:104CB0002946984706467EB92B20F54BF5A2F7A169
:104CC0000090FE4802F09EFB41F268210859095904
:104CD00009680A6A00219047701C78B92D20EC4BB6
:104CE000F7A2F9A10090F54802F08CFB41F268218F
:104CF0000859095909680A6A00219047F8BD70B53A
:104D00000446012595E005EB450104F5276010F800
:104D10003100C0F3401000287ED041F268221059C3
:104D20001259126851688847064605EB450104F59B
:104D3000276000EBC1004169711A05EB450204F5DB
:104D4000276050F83200B1EB104F70D941F2682261
:104D50001059125912681169884705EB450104F58D
:104D6000276030F83100C0F3C420002844DD05EB93
:104D7000450104F5276030F83100C0F3841105EBDC
:104D8000450204F5276030F83200C0F3C4208142A8
:104D900009DB05EB450204F5276000EBC201204664
:104DA00000F09FFF3CE005EB450204F5276000EBB7
:104DB000C200406841682046FFF76DFF05EB4501E2
:104DC00004F5276000EBC100466105EB450104F5E1
:104DD000276030F831008109491C05EB450204F5D4
:104DE000276050F8320061F38A1005EB450204F5A4
:104DF000276141F8320013E005EB450204F5276016
:104E000000EBC200406841682046FFF744FF05EB15
:104E1000450104F5276000E009E000EBC1004661B0
:104E200041F2682210591259126851698847681C6A
:104E3000C5B2202DFFF467AF70BD70B5ADF5806DC4
:104E4000044641F268210859095909684FF4806203
:104E5000CB68694698470646002505E01DF8051011
:104E60002046FFF7F9FA6D1CB542F7DB0DF5806DB2
:104E700070BD704719B1012280F87A2002E000224B
:104E800080F87A20704770B504460D4604F64E113E
:104E90002846FFF722FA012184F86E1970BD2DE92A
:104EA000FC4104460D4600272868C0F340700028E6
:104EB0006BD02868C0F3046001285DDD2868C0F36A
:104EC0000460202858DA2868C0F3046000EB400131
:104ED00004F5276010F83100C0F3401000284BD0D3
:104EE00041F26822105912591268116988472868DE
:104EF000C0F3046000EB400104F5276000EBC10043
:104F0000406846683068C0F304602968C1F30461F2
:104F1000884232D1308980B2298989B288422CD125
:104F20002868C0F3046000EB400104F5276000EB43
:104F3000C10087682868C0F3046000EB400204F5F4
:104F4000276000EBC201204600F0CBFE41F2682250
:104F500010591259126851698847002FBFD028682C
:104F6000C0F3046000EB400104F5276000EBC100D2
:104F70002946C2682046B847EAE041F26822105943
:104F80001259126851698847E2E02868C0F304604A
:104F900010B1012806D104E029462046FEF766FC40
:104FA000D5E000BF2868C0F304605A214D4B39A2F8
:104FB000CDE900104CA1414802F024FA41F26821E9
:104FC0000859095909680A6A002190472868C0F3FE
:104FD0000460401E04F5576111F83000C0F3411021
:104FE000012822D02868C0F30460401E11F8300068
:104FF000C0F34110D0B92868C0F30460012810DD67
:105000002868C0F30460401E51F8300020F06000B2
:1050100020302968C1F30461491E04F5576242F843
:10502000310029462046FEF721FC8FE02868C0F3B6
:105030000460401E04F5576111F83000C0F34110C0
:10504000022864D141F2682210591259126811697C
:1050500088472868C0F30460401E04F5576101EBDF
:10506000C00040684668308980B2298989B2884288
:105070004ED12868C0F30460401E04F5576202EB6D
:10508000C000406841682046FFF705FE38E0000098
:105090005C8000085354415455530000257320256B
:1050A000732C6C696E652025643A20506F727420F1
:1050B0006E6F742073656E6400000000311C002068
:1050C0004552524F5200000025732025732C6C6905
:1050D0006E652025643A20506F727420636C6F7384
:1050E000656400003680000825732025732C6C69E8
:1050F0006E652025643A2041434B20256400000062
:1051000041F26822105912591268516988471DE00E
:105110002868C0F30460401E04F5576151F8300060
:1051200020F0600120312868C0F30460401E04F5BF
:10513000576242F8301041F2682210591259126831
:105140005169884729462046FEF790FB00BF00BF03
:10515000BDE8FC812DE9FF4104460E4600270025ED
:105160007068B0F57C7F17D340F223117068F54B5F
:10517000AFF2B402CDE90010F3A1FE4802F042F90B
:1051800041F268210859095909680A6A00219047C3
:10519000681E04B0BDE8F081307800F0030020B153
:1051A00001287DD002287CD12AE141F268221059E1
:1051B00012591268116988473278C2F38001B288A7
:1051C00090B2FFF751FD804642460021204600F094
:1051D00097FD0546DDB941F268221059125912684F
:1051E0005169884740F23310D64BAFF22C12E2A13E
:1051F0000090E04802F006F941F268210859095987
:1052000009680A6A002190474FF0FF30C1E7B4F8FF
:105210004605297801F01F013278C2F3800200238D
:10522000CDE90032CDE90210B08883B2B268686877
:1052300041682046FFF73DF90746FFB94FF49E70DD
:10524000C04BAFF28412D9A10090CA4802F0DAF83C
:1052500041F268210859095909680A6A00219047F2
:105260002946204600F03DFD41F2682210591259AE
:105270001268516988474FF0FF308AE768684168D3
:105280002046FFF708FDB4F84605401CA4F8460583
:105290002946204600F025FD41F26822105901E020
:1052A00005E0C5E11259126851698847D7E141F21A
:1052B0006822105912591268116988473278C2F36E
:1052C0008001B28890B2FFF7CFFC804642460121B0
:1052D000204600F015FD0546DDB941F2682210595F
:1052E000125912685169884740F25110954BAFF23C
:1052F0003022B6A100909F4802F084F841F2682164
:105300000859095909680A6A002190474FF0FF308F
:105310003FE7B4F846052969884204D1B4F8460548
:10532000401CA4F84605B4F84615287800F01F0084
:105330003278C2F380020023CDE90032CDE90201C8
:10534000B08883B2B268686841682046FFF7B1F858
:105350000746FFB94FF4AE707A4BAFF29C2293A18F
:105360000090844802F04EF841F26821085909592A
:1053700009680A6A002190472946204600F0B1FCDE
:1053800041F26822105912591268516988474FF04A
:10539000FF30FEE6B4F846052861B4F84605401C27
:1053A000A4F84605F068A8603069E86070881428A1
:1053B00001DD708800E01420296860F31F41296036
:1053C00041F2682210591259126851688847686181
:1053D000286820F4F86040302860286820F478407D
:1053E00000F500602860686841682046FFF753FCBC
:1053F00041F26822105912591268516988472EE10A
:1054000041F268221059125912681169884732789E
:10541000C2F38001B28890B2FFF726FC8046424674
:105420002021204600F06CFC0546DDB941F26822DF
:10543000105912591268516988474FF4BC70414B9A
:10544000AFF284324CA100904A4801F0DBFF41F2F8
:1054500068210859095909680A6A002190474FF0E4
:10546000FF3096E6B4F846052969884204D1B4F8BD
:105470004605401CA4F84605B4F84605297801F015
:105480001F013278C2F380020023CDE90032CDE95A
:105490000210B08883B2B268686841682046FFF79E
:1054A00008F80746FFB94FF4C370264BAFF2F0324D
:1054B00053A100902F4801F0A5FF41F2682108593F
:1054C000095909680A6A002190472946204600F0D8
:1054D00008FC41F268221059125912685169884734
:1054E0004FF0FF3055E6B4F846052861B4F846059C
:1054F000401CA4F84605F068A8603069E860708830
:10550000142801DD708800E01420296860F31F4131
:10551000296041F26822105912591268516888476F
:105520006861286820F4F860403028603078C1084D
:10553000286861F3CF202860686841682046FFF73B
:10554000AAFB6DE04180000825732025732C6C694F
:105550006E652025643A204552524F522C6C656E80
:105560006774683D2564206973206F76657273697E
:105570007A650A00311C002025732025732C6C6984
:105580006E652025643A204552524F522C7468654E
:105590007265206973206E6F7420656E6F75676821
:1055A000206D656D6F72790A00000000257320255B
:1055B000732C6C696E652025643A20656E63727980
:1055C0007074204552524F520A0000002573202566
:1055D000732C6C696E652025643A204552524F52F7
:1055E0002C746865726520617265206E6F74206529
:1055F0006E6F756768206D656D6F72790A000000C7
:1056000025732025732C6C696E652025643A20650E
:105610006E6372797074204552524F520000000040
:1056200041F268221059125912685169884716E0F0
:10563000307800F003004FF4CD71604BAFF2805230
:10564000CDE900105EA1664801F0DCFE41F2682160
:105650000859095909680A6A0021904700BF00BF2C
:10566000002096E52DE9FF4104460D46002700265F
:105670006868B0F57C7F16D3F2216868594BAFF2A9
:10568000C052CDE9001058A1554801F0BBFE41F2CF
:1056900068210859095909680A6A00219047701E53
:1056A00004B0BDE8F081287808B90020F8E7287830
:1056B000002877DD2878202874DA41F26822105912
:1056C00012591268116988472A88110AAA8890B26B
:1056D000FFF7CAFA804629784246204600F0AFFB21
:1056E0000646DEB94FF482703E4BAFF22C6248A101
:1056F00000903B4801F086FE41F2682108590959A3
:1057000009680A6A0021904741F26822105912592B
:105710001268516988474FF0FF30C1E769882878DF
:105720002A88120A0123CDE90032CDE90201A888B6
:1057300083B2AA68706841682046FEF7BAFE074641
:10574000E7B94FF48770274BAFF28C62AFF2A41128
:105750000090234801F056FE41F26821085909598A
:1057600009680A6A0021904741F2682210591259CB
:105770001268516988474FF0FF3091E770684168BF
:105780002046FFF788FA41F2682210591259126830
:1057900051698847306820F0600040303060002058
:1057A0007EE7FFE74FF0FF307AE710B5044620466A
:1057B00000F052F8204600F09AF810BD4180000831
:1057C00025732025732C6C696E652025643A20555D
:1057D0006E6B6E6F776E206D6F64653A25640A009C
:1057E000311C00204F80000825732025732C6C6924
:1057F0006E652025643A206C656E6774683D25648B
:10580000206973206F76657273697A650A000000FB
:1058100025732025732C6C696E652025643A2074ED
:1058200068657265206973206E6F7420656E6F7590
:105830006768206D656D6F72790A000000B9704766
:10584000017811B101781F2900D1F8E7016821F42E
:105850007F41016000BFF2E7D0F8702922F0FF021B
:10586000C0F87029D0F8702922F47F4202F58072C6
:10587000C0F8702900F6686240F674131A50B0F848
:10588000702992B2C0F87029012113E000F5176267
:1058900052F8312061F3070200F5176343F8312015
:1058A0001A4652F8312022F47F4300F5176242F87D
:1058B0003130491C1F29E9D3D0F8682A22F0FF02B1
:1058C0001F32C0F8682AD0F8682A22F47F4202F515
:1058D0008072C0F8682A00F6686202F58063C0F83A
:1058E0006C3AB0F8682A93B2C0F8683A704710B5BD
:1058F0000146002022E000EB400301F5276252F848
:10590000332060F3040200EB400401F5276343F801
:10591000342000EB400301F5276252F8332022F0D7
:10592000200300EB400401F5276242F834300023E5
:1059300000EB400402EBC4025360401C2028DAD381
:10594000002017E0421C01F5576353F8303062F332
:10595000040301F5576242F8303052F8302022F04B
:10596000600301F5576242F83030002302EBC002B9
:105970005360401C1F28E5D310BD2DE9F04F8BB0BC
:1059800005460F464FF0000A0026B146F74903C905
:10599000CDE90101B34600200090B7F57C7F02DA23
:1059A000B7F5806F03DD00200BB0BDE8F08F002459
:1059B00019E005F5176030F83400C0F3072001281E
:1059C0000FD105F5176050F834000AEB104A05F5C1
:1059D000176010F834204846411C01F0FF0903A964
:1059E0000A54601CC4B2202CE3D30AEB0700B0F5C4
:1059F000806F01D90020D7E7BAF1000F15D140F62A
:105A000074104159C5F87C19001D405967F31F40B7
:105A100040F6781148510846405920F47F4000F57F
:105A20008070485105F67810BEE700242FE000266C
:105A300026E003A8815D05F5176000EBC10003AA0D
:105A40004168701C125C05F5176000EBC2004068ED
:105A5000814213D903A9701C085C895D484003AAE0
:105A6000711C505403A8805D515C484003A98855BF
:105A7000701C085C895D4840711C5054701CC6B293
:105A8000A9EB0400401EB042D3DC601CC4B2A9F1F3
:105A90000100A042CBDC002447E003A9601C095CA4
:105AA00005F5176000EBC100416803A8025D05F52C
:105AB000176000EBC2004068A1EB000803A8015D7D
:105AC00005F5176050F83100A8EB1040B8421AD322
:105AD00003A8025D05F5176050F83200A8EB1040EE
